:1000000019C02BC02AC029C028C027C026C025C0BF
:1000100024C023C022C021C020C01FC01EC01DC0DC
:100020001CC01BC01AC019C018C017C016C015C00C
:1000300014C013C011241FBECFEFD4E0DEBFCDBF6C
:1000400011E0A0E0B1E0EEEBF0E002C005900D920F
:10005000AC33B107D9F70ED030C0D2CF05C0000005
:100060006150710981099109611571058105910539
:10007000B1F708958FEF84B917B81AB88BB92F98D4
:10008000E9B1EF70F0E0E55DFE4F808185B964EF86
:1000900071E080E090E0E2DF2F9AE9B1E295EF7045
:1000A000F0E0E55DFE4F80818095806885B964EF62
:0E00B00071E080E090E0D2DFE2CFF894FFCF65
:1000BE003F065B4F666D7D077F6F000000000000FE
:1000CE0000777C395E79713D76301E003800545CC5
:1000DE007367506D781C0000006E003F065B4F6624
:0C00EE006D7D077F6F777C395E797100B3
:00000001FF
